:020000021000EC
:10200000C00A0020FD4E0100AB4A0300AB4A0300AA
:102010002B5E0300AB4A0300AB4A0300AB4A03004C
:10202000AB4A0300AB4A0300AB4A0300AB4A0300D0
:10203000AB4A03002C0E0400A9480300AB4A03007E
:10204000AB4A0300AB4A0300AB4A0300AB4A0300B0
:10205000AB4A0300AB4A0300AB4A03006D590100D1
:10206000AB4A0300AB4A0300AB4A0300AB4A030090
:1020700055A60100754A010061490300694A010043
:102080005D490300AB4A0300AB4A0300AB4A0300BF
:10209000AB4A030021560100AB4A0300AB4A0300E0
:1020A000AB4A0300AB4A0300AB4A0300AB4A030050
:1020B000AB4A030051240300AB4A03003D2E03004A
:1020C00001030400FD020400312603000D03040097
:1020D00005030400152E0300090304007D2E0300F0
:1020E000D9070300AD090300E92E0300AB4A030042
:1020F000AB4A0300AB4A0300AB4A0300AB4A030000
:10210000AB4A0300AB4A0300AB4A0300AB4A0300EF
:10211000AB4A0300AB4A0300AB4A0300AB4A0300DF
:10212000AB4A0300AB4A0300AB4A0300AB4A0300CF
:10213000AB4A0300AB4A0300AB4A0300AB4A0300BF
:1021400038B5044601F0FAFBD8B1E57820792B02C6
:1021500003F4FE43184307EE900AF8EEE77A17EE11
:10216000900A21F0A9F809A3D3E9002321F0FCF893
:1021700021F0DCFB2B0600EE100A01D5B1EE400A7F
:1021800038BD9FED010AFBE7000000009A9999997C
:102190009999B93F0000000010B5044601F0CEFB4C
:1021A000A8B1B4F8010040BA80B207EE900AF8EE88
:1021B000E77A17EE900A21F07FF808A3D3E900230D
:1021C00021F0D2F821F0B2FB00EE100A10BD9FED15
:1021D000020AFBE7AFF30080000000009A9999998A
:1021E0009999B93F000000000123174A13B5D36045
:1021F000536903F4A073B3F5807FF9D1684612499F
:1022000022F057FE114CBDF900302380208800B227
:1022100021F040F808A3D3E9002321F0A5F808A392
:10222000D3E9002321F0CAF9094BC3E90001208852
:1022300000B202B010BD00BF6666666666660A4000
:102240000000000000FEAF400040005A00290020BE
:10225000280F00200000000038B5FFF7C5FF1A4B1B
:10226000D3E90001D3E9004502460B4610A1D1E9AC
:10227000000120F0C1FE22462B4621F09FF921F0FB
:1022800055FB21F019F89FED0C1B41EC100B00F0F1
:1022900043FC0BA3D3E9002351EC100B21F064F8AD
:1022A00021F044FB00EE100A38BD00BFAFF3008000
:1022B0006666666666660A407B14AE47E17AE4BFEE
:1022C00052B81E85EB513340280F0020000000005B
:1022D0002DE9F04F2DED088B8DB09DED1E7B09EEA5
:1022E000903ADDE920430A93229B09EE100A8A46C0
:1022F0000792069351EC170B53EC172BB0EE478A5D
:10230000F0EE678A21F098FA80B14FF0FF3251EC7D
:10231000180BCF4B21F0B8FA40B94FF0FF326FF4F1
:10232000801351EC180B21F091FA98B1069B51469D
:1023300022930A9B19EE100ACDE9204319EE903A38
:10234000079A8DED1E8B0DB0BDEC088BBDE8F04FEC
:1023500000F0A2B90022002351EC180B21F076FA0C
:10236000002800F0448118EE903A18EE108A03F12C
:102370000049069BC9F30A5013F48063A0F2FF30B2
:1023800008BF06240B9320F085FFA1A3D3E9002307
:1023900020F0EAFFA0A3D3E9002320F02FFEC9F329
:1023A00013050F4645F07F5106460022A94B4046D3
:1023B00041F4401120F020FE99A3D3E9002320F03E
:1023C000D3FF02460B463046394620F017FE21F077
:1023D00065FA834620F05EFF93A3D3E90023064607
:1023E0000F4620F0C1FF00229B4B20F007FE21F09A
:1023F00055FA8FA3D3E9002305463946304620F02D
:10240000B3FF064628460F4620F044FF8AA3D3E9CF
:10241000002320F0A9FF02460B463046394620F043
:10242000EBFD02460B4606460F4620F09DFF324666
:1024300041EC1A0B3B463046394620F0DFFD0022C6
:1024400041EC1B0B854B51EC1A0B21F0B7F8002225
:10245000834B20F0D3FD02460B4651EC1A0B21F0C2
:10246000ADF800227F4B20F0C9FD02460B4651EC2F
:102470001A0B21F0A3F8324641EC1A0B3B46002020
:102480004FF0804120F0B8FD02460B4651EC1A0B8C
:1024900020F0B4FD02460B4651EC1B0B21F08EF8E8
:1024A00005F2FF350022704B20F0A8FD00222B051D
:1024B00020F05AFF42464B4606460F4621F0E4F90B
:1024C000002840F09780CDE908670BF16303C72B24
:1024D000069B34BF04250525190521D558A3D3E94A
:1024E00000234046494621F0C5F9002800F0BE808F
:1024F00055A3D3E900234046494621F0A7F9002817
:1025000000F0B48000255C45CCBFA4EB0B00002498
:10251000AB46069BC8BF00F1FF3443F480630693CB
:102520000A9B9D4238BF5E1B069B28BF002613F006
:10253000020702D0002D18BF0026BBF1000F07D004
:10254000DDE908234046494621F038F880468946AF
:102550000022002351EC180B21F078F910B109F199
:1025600000439946069B514623F40063CDE903637B
:1025700019EE100A19EE903ACDE90089079A0294F3
:1025800000F08AF875B3069B024613F0200F00F1A5
:10259000010619EE903A14BF45206520514619EE08
:1025A000104AA0470523002205930A238BEAEB700B
:1025B000CDE90232A0EBEB704FEADB73013D0193F2
:1025C000009019EE903A3246514619EE100A0495E1
:1025D00024F0BCFD37B1079BC51A079B58190A9B0D
:1025E000AB424CD80DB0BDEC088BBDE8F08F59EC78
:1025F000188BBEE6002230463946194B20F0DEFF2C
:102600000BF1FF3BCDE908015FE700BFAFF30080AE
:10261000FB799F501344D33FB3C8608B288AC63FD1
:1026200061436F63A787D23F71A379094F930A4033
:102630001655B5BBB16B0240EF39FAFE422EE63FAC
:102640002D431CEBE2361A3F0000000080842E412F
:10265000FFFFEF7F0000F83F0000E03F00002C404C
:1026600000002440000018400000F03F002C3FF420
:1026700057AF0B9B002B3FF453AF013C50E7024692
:1026800019EE903A5146202019EE104AA047013524
:10269000A3E700BF000000002DE9F04F2DED088BEF
:1026A0008FB0DDE920AB08EE100A0F4608EE902A45
:1026B00009EE103ADDE922535246049350465B4638
:1026C0005946249E21F0B8F8A0B9049B2396229382
:1026D00003232193B84B209318EE902A19EE103A59
:1026E000394618EE100A0FB0BDEC088BBDE8F04F6C
:1026F00024F064BC4FF0FF326FF48013504659460B
:1027000021F0A4F830B1049B239622930423219353
:10271000AA4BE0E74FF0FF3250465946A84B21F054
:10272000B3F870B1A74A06F00403002B08BF0322D8
:10273000A54B1CBF1346042204992396CDE9212101
:10274000C9E7504698A3D3E90023594621F09CF8E5
:1027500038B997A3D3E900235046594621F076F8BB
:1027600098B1049B18EE902ACDE92253394619EE10
:10277000103A18EE100ACDE920AB24960FB0BDEC4C
:10278000088BBDE8F04FFFF7A3BD002200235046A1
:10279000594621F05BF8002800F081805B465246E4
:1027A0000020002120F028FC012382468B4605935F
:1027B00016F4806F08BF06253021A94606ABA5F1A7
:1027C0002002B9F1090FA5EB090406D909F1FF3977
:1027D0004A4503F8011BF4D120245946504621F004
:1027E0005DF87A4B054603EBC90393ED007BB0EE31
:1027F00047AAF0EE67AA20F04DFD02460B46504670
:10280000594620F0F9FB53EC1A2B20F0ADFD02469F
:102810000B4643EC1B2B21F069F8804620F02AFD83
:1028200002460B4651EC1B0B20F0E6FB02460B4622
:1028300043EC1B2B0022664B21F026F888B308F1ED
:102840000108404620F016FD02460B4651EC1A0BDB
:1028500021F006F810B14FF000080135B9F1000F72
:1028600051D1284620F016FD02460B4650465946E7
:1028700020F0C2FB0022564B8046894620F0E6FF3E
:1028800030B1002240464946514B20F0FDFF10B1C7
:10289000E80700D5013506AB0A2223445AE005902B
:1028A00086E7002251EC1B0B494B20F0CFFF00289C
:1028B000D4D1B8F1000F02D018F0010FCED008F13A
:1028C0000108CBE7B8FBF1F001FB1082B8F1090F6A
:1028D00002F1300209F1FF3904F1010403F8012B80
:1028E00028D83021A14406AA202C11D04C4504F14F
:1028F000010321D104F138020DEB02042E2204F869
:10290000202C1C46C7E70A2106AB2344202CD9D132
:1029100006F00303012B06AB39D1049A002A36D006
:10292000059A12B916F00C0F02D0049A013A0492DB
:10293000302214E08046E9E7A1541C46D4E795FB19
:10294000F2F102FB1155303503F8015B01340D46FD
:102950000029DDD0202CF2D1DAE71A550134049990
:10296000A14214D9202CF8D1049A0093CDE9014258
:1029700019EE103A18EE902A394618EE100A03960E
:1029800024F01CFB0FB0BDEC088BBDE8F08F202CB1
:10299000EAD0059AF2B12D2104F138026A4402F816
:1029A000201C0134E0E700BF0000000065CDCD41F0
:1029B0000000000065CDCDC1371104003B110400BB
:1029C000FFFFEF7F321104002E11040040110400BC
:1029D0000000E03F710704D504F138022B216A445E
:1029E000DDE73207C0D504F1380220216A44D6E77A
:1029F000002370B5404C05468AB0E36318B10088E7
:102A000023600EF083FD3D482CF027FF3C4E3D4BEC
:102A1000304633603C4B736027F05FFA002130464C
:102A200019F0AEFD32A3D3E90023A062C4E9062366
:102A300027F05EFAD4E90623194310434FF0FF3321
:102A4000C4E90601CDE900014FF0FF32A06A2CF085
:102A50006DFF02224FF0FF31A06A2CF06CFF0120C5
:102A60000EF0ECFA4FF4007300222849A06A2CF013
:102A7000BBFFB0F5007F38D100239422CDE90733A6
:102A800009933C23CDE9033205939623A06A03A959
:102A9000069319F091FE35B3287C0EF08DFF0546A4
:102AA000F0B9A06A2DF081F80EF02EFF0EF0A8FA12
:102AB00020B14FF4807000210CF0FCF80EF0B0FA59
:102AC00020B14FF4006000210CF0F4F827F0D4F9A5
:102AD000012019F0A9FD0E4A0E49A06A27F0FBF962
:102AE00028460AB070BDFF20D7E70725F8E700BFEA
:102AF0000DD501552000000010100020690345ECA1
:102B00001C24002075170200102400201022002031
:102B10007F9E0300BF9E0300F8B555EC114B2DEDD1
:102B2000028B57EC106B00F06FF822462B462046C4
:102B30002946B0EE408AF0EE608A21F0D7FD78B9E0
:102B4000002200233046394620F076FEF0B1002204
:102B500000232046294620F06FFE40B19FED288BD0
:102B6000B0EE480AF0EE680ABDEC028BF8BD45EC09
:102B7000104B21F0ADFD0028F2D02046294600225E
:102B8000002320F063FE0028EAD02EE0B0EE480AD1
:102B9000F0EE680A21F09CFDA0B10022002351EC68
:102BA000180B20F049FE0028DAD047EC106B21F01A
:102BB0008FFD0028D4D045EC104B21F089FD002872
:102BC000CED012E047EC106B21F082FD0028E4D05B
:102BD00045EC104B21F07CFD0028DED053EC182B87
:102BE00051EC180B21F082FD20B921F067FC222363
:102BF0000360B5E721F062FC21230360B0E700BF6A
:102C0000000000000000F03F2DE9F04F55EC114BA3
:102C100025F0004A5AEA04012DED0C8B57EC106B9D
:102C200087B029D1B31987F40022654852419942EF
:102C300070EB020319D222462B463046394620F06B
:102C4000DDF941EC100B07B0BDEC0C8BBDE8F08F4B
:102C50005C4B43441A43EED1231985F400215848B4
:102C600049419A4270EB0103E5D39FED530B07B046
:102C7000BDEC0C8BBDE8F08F534927F00049B846F6
:102C800010EE102A8945E3DCAB4611EE103A01D173
:102C9000002ED0D14C498A45DADC01D1002BD7D1A6
:102CA000B8F1000F43DB0021009183B9464B9A45F0
:102CB00059D0464B9A4569D0BBF1804F00F0B8849B
:102CC000434B9B4503D1B8F1000F80F20885029277
:102CD00047EC106B21F0F2FC029A4AB928F040430D
:102CE0003A4A934200F0A783B9F1000F00F0A383A2
:102CF0004FEAD873009A013B049313434DD0354BF0
:102D00009A456DDD03F104739A45334B40F32284F9
:102D1000994540F39784BBF1000F40F3978400205E
:102D200007B0BDEC0C8BBDE8F04F21F0BDBC2B49CA
:102D30008A4528DCA1F154718A45B4DD4FEA2A5155
:102D4000A1F2FF31142940F38384C1F1340123FA45
:102D500001F000FA01F19942A5D100F00100C0F1A3
:102D600002010091A1E7174B4B4413433FF47DAFA1
:102D7000194B994540F3A483BBF1000FC0F28A843C
:102D800045EC104B5FE7022100918EE7BBF1000F8D
:102D9000C0F2448447EC106B55E732463B46104680
:102DA000194620F029F902460B4620F007FC41ECB9
:102DB000100B48E7AFF30080000000000000F03F78
:102DC0000000F0FF000010C00000F07F0000F03FA6
:102DD0000000E03F0000E041FFFFEF3FFFFF3F4307
:102DE000E34B002208EA030353B9E24B51EC100B0A
:102DF00020F0BAFA6FF0340241EC100B10EE909A0A
:102E00004FEA2953C9F31309DB4EA3F2FF3349EA12
:102E100006069A18D94B9945059207DDD84B994576
:102E200040F324840132A6F58016059200279FED19
:102E3000B87B9FEDB96BB0EE47DAF0EE67DAB0EE33
:102E400047CAF0EE67CA51EC160B53EC102B334611
:102E5000761043EC192B41EC1A0B02460B4646F058
:102E6000005651EC190B20F0C7F88046894653EC08
:102E70001A2B51EC190B20F0C1F802460B4600202A
:102E8000BD4920F09BFB41EC1B0B53EC1B2B404638
:102E9000494620F069FA0A4606F5002341EC180B72
:102EA00001460020CDE902120021064602460291A9
:102EB000D919DDE902AB0F460B465046594620F0C2
:102EC00053FA02460B464046494620F095F88046A4
:102ED00089463046394653EC1A2B20F08DF80246CD
:102EE0000B4651EC190B20F087F852465B4620F058
:102EF0003BFA02460B464046494620F07DF853EC2B
:102F00001B2B20F031FA53EC182B41EC190B51EC30
:102F1000180B20F029FA06460F4681A3D3E90023B7
:102F200020F022FA80A3D3E9002320F067F832468C
:102F30003B4620F019FA7EA3D3E9002320F05EF887
:102F400032463B4620F010FA7BA3D3E9002320F061
:102F500055F832463B4620F007FA79A3D3E900231F
:102F600020F04CF832463B4620F0FEF976A3D3E938
:102F7000002320F043F88046894632463B463046DF
:102F8000394620F0F1F902460B464046494620F00A
:102F9000EBF9524606460F465B4651EC180B20F003
:102FA0002DF853EC192B20F0DFF932463B46002672
:102FB00020F024F85246804689465B4650465946E2
:102FC00020F0D2F902460B4643EC1A2B00226D4B3F
:102FD00020F014F842464B4620F010F80F463246D7
:102FE00050463B46594620F0BFF9002282468B46A8
:102FF000644B304639461FF0FFFF53EC1A2B1FF08D
:10300000FBFF02460B46404649461FF0F5FF53ECD6
:10301000182B20F0A9F98046894632463B4651ECF0
:10302000190B20F0A1F902460B46404649461FF015
:10303000E5FF804689465046424659464B461FF0BA
:10304000DDFF0F46304642A3D3E9002320F08CF980
:1030500052465B4641EC190B304639461FF0CCFF17
:1030600002460B46404649461FF0C6FF3AA3D3E945
:10307000002320F079F9804689463046394638A346
:10308000D3E9002320F070F902460B46404649463A
:103090001FF0B4FF53EC1C2B1FF0B0FF06460F4689
:1030A000059820F0F7F83246804689463B4651ECB9
:1030B000190B1FF0A3FF53EC1D2B1FF09FFF42467F
:1030C0004B461FF09BFF002042464B4682468B46F4
:1030D0001FF092FF53EC1D2B1FF08EFF53EC192BAA
:1030E0001FF08AFF02460B46304639461FF084FF28
:1030F000009B049A013B134341EC180B40F0D9812B
:103100009FED197BB0EE479AF0EE679A3CE000BF66
:103110000000000000000000000000000000F03F80
:10312000EF4E454A287ECA3F65DBC9934A86CD3FAC
:1031300001411DA96074D13F4D268F515555D53F92
:10314000FFAB6FDBB66DDB3F033333333333E33F2A
:10315000000000E009C7EE3FFD033ADC09C7EE3F7F
:10316000F5015B14E02F3EBE000000000000F0BF40
:103170000000F07F000040430000F03F8E98030005
:1031800079B60B0000000840002320462946CDE90F
:1031900000450093DDE9008942464B461FF02CFFB5
:1031A00052465B4620F0E0F806460F4622462B4684
:1031B00051EC180B20F0D8F802460B463046394641
:1031C0001FF01CFF42464B4606460F4650465946E6
:1031D00020F0CAF804460D463046394622462B46B2
:1031E0001FF00CFFD44B8046894699428A4640F333
:1031F0003A81D24B0B44034340F058823046394663
:10320000B7A3D3E900231FF0F9FE22462B4641EC79
:10321000180B404649461FF0EFFE02460B4651ECA4
:10322000180B20F031FB002840F04082CAF30A530B
:103230004FF48012A3F2FE33C149002042FA03F397
:10324000BAF1000F5344C3F30A52A2F2FF3241FA1B
:1032500002FCC3F31301C2F1140241F4801141FADC
:1032600002F223EA0C0100920B46024602DA0099B0
:1032700049420091204629461FF0BEFE009B0246AF
:1032800004461B050D46304602930B4639461FF097
:10329000B5FE89464FF00008494693A3D3E90023C1
:1032A000404620F061F8224682468B462B46404637
:1032B00049461FF0A1FE02460B46304639461FF034
:1032C0009BFE8BA3D3E9002320F04EF804460D4665
:1032D0004046494688A3D3E9002320F045F802463A
:1032E0000B46204629461FF089FE06460F465046EB
:1032F000324659463B461FF081FE524604460D4673
:103300005B461FF079FE02460B46304639461FF0F9
:1033100073FE224682468B462B462046294620F0E5
:1033200023F806460F4676A3D3E9002320F01CF8C5
:1033300075A3D3E900231FF05FFE32463B4620F021
:1033400013F873A3D3E900231FF058FE32463B461F
:1033500020F00AF870A3D3E900231FF04DFE324697
:103360003B4620F001F86EA3D3E900231FF046FE90
:1033700032463B461FF0F8FF02460B4620462946E0
:103380001FF03AFE06460F462046324629463B4687
:103390001FF0EAFF804689463046394600224FF04A
:1033A00080431FF029FE02460B464046494620F066
:1033B00005F9524606460F465B46204629461FF051
:1033C000D3FF52465B461FF019FE02460B463046BD
:1033D00039461FF011FE22462B461FF00DFE024615
:1033E0000B46002057491FF007FE0C460B4602997A
:1033F00002460C44B4F5801FC0F2508110462146AD
:1034000053EC192B1FF0B0FF41EC100B1BE447EC01
:10341000106B009221F052F9009A002A7FF4BDACA3
:1034200028F04043474A934203D0B9F1000F7FF49C
:10343000B4AC00230093BBF1000F07DA0020414930
:1034400053EC102B20F0BAF841EC100BB8F1000F40
:10345000BFF6F9AB3C4B009A4B44134340F031812B
:1034600053EC102B9BE421F00043DFF8E4C06345EC
:1034700040F3CC80354B0B4403430AD122462B4604
:103480001FF0BAFD32463B4620F0F4F900283FF425
:10349000CDAE0022002351EC190B20F0D7F90038F3
:1034A00018BF012007B0BDEC0C8BBDE8F04F21F038
:1034B000F1B89FED1D7BB0EE479AF0EE679A63E698
:1034C000BBF1000F9FED1A0BBFF6BDAB05F100433A
:1034D00000EE104A00EE903AFFF7B5BBAFF3008064
:1034E000FE822B654715973C00000000432EE63F07
:1034F000EF39FAFE422EE63F396CA80C615C20BE23
:10350000D0A4BE726937663EF16BD2C541BDBB3EE9
:103510002CDE25AF6A56113F93BDBE166CC1663FC7
:103520003E5555555555C53F000000000000F03F81
:103530000000000000000000FFFF8F40000070BF8F
:10354000FFFF0F000000F03F000010C000346F3F8D
:10355000FFCB9040994575DB7B4B99453FF7DBAB43
:103560000022794B51EC100B1FF046FD06460F462A
:1035700065A3D3E900231FF0F7FE82468B46304651
:10358000394663A3D3E900231FF0EEFE00226F4B00
:1035900041EC180B304639461FF0E6FE02460B465A
:1035A0005DA1D1E900011FF027FD32463B461FF027
:1035B000DBFE02460B46002065491FF01DFD8046DC
:1035C000894632463B46304639461FF0CDFE02461C
:1035D0000B46404649461FF0C7FE51A3D3E90023DE
:1035E0001FF0C2FE02460B4651EC180B1FF004FD03
:1035F00006460F465046594632463B461FF0FEFCF3
:10360000002052465B4682468B4669E5504A93420B
:1036100075DCDDE90012029100913BE600204A4989
:1036200032463B461FF0CAFF41EC100BFFF70BBBC5
:1036300032463B46304639461FF096FE41EC100BB1
:10364000FFF701BBBBF1000FFFF669AB002029E7D4
:10365000002B7FF4DCAEC1F114014AFA01F000FA4C
:1036600001F1514544D00093FFF723BB9FED2E7B22
:103670004FF48027B0EE47DAF0EE67DA9FED2C7B4F
:10368000B0EE47CAF0EE67CA9FED2B7B51EC170BEB
:10369000FFF7DBBB9FED2A0BFFF7D5BA009843EC91
:1036A000102B00F059F851EC100BA9E60022002372
:1036B00051EC190B20F0CAF8003818BF0120FFF7B1
:1036C0002FBB009B012B7FF4BEAA10EE901A10EEC8
:1036D000102A01F1004343EC102BFFF7B4BA47EC7A
:1036E000106B07B0BDEC0C8BBDE8F04F20F0ECBECA
:1036F00000F00100C0F102030093FFF7DABA1B15D6
:1037000096E500BFAFF30080000000604715F73F6B
:1037100044DF5DF80BAE543E555555555555D53FD4
:10372000FE822B654715F73F0000004003B8E23FDB
:1037300006D0CF43EBFD4C3E000000000000F83FF8
:1037400000000000000000000000F03F0000D03F3B
:103750000000E03F0000000038B553EC102BC3F32D
:103760000A519C46044689BB23F0004C10EE101A07
:103770005CEA010129D03E4D194600223D4B10EE76
:10378000100A1FF0F1FDAC4202460B4616DB8C46D8
:10379000C1F30A513639214440F2FE70814221DCE6
:1037A000002947DC11F1350F34DA4CF250318C42EC
:1037B00018DC002B26A1D1E9000143DB24A3D3E9C7
:1037C00000231FF0D1FD41EC100B38BD40F2FF7E0D
:1037D0007145E0D110EE100A19461FF00FFC41ECC4
:1037E000100B38BD002B1CA1D1E9000107DB1AA387
:1037F000D3E900231FF0B8FD41EC100B38BD18A130
:10380000D1E9000114A3D3E900231FF0ADFD41EC81
:10381000100BF3E7184836311446184B0CEA000039
:10382000002240EA0155204629461FF09DFD41EC4B
:10383000100B38BD10480CEA000040EA015343EC7D
:10384000102B38BD08A1D1E90001B7E7AFF3008024
:1038500059F3F8C21F6EA5019C7500883CE4377EC1
:103860009C7500883CE437FE59F3F8C21F6EA581B1
:10387000B03CFFFF00005043FFFF0F800000903C72
:1038800010B5054C237833B9044B13B1044800E05C
:1038900000BF0123237010BD601200200000000053
:1038A0007C5C040008B5034B1BB10349034800E0EE
:1038B00000BF08BD00000000641200207C5C040012
:1038C000A3F5803A704700BF174B002B08BF134B7E
:1038D0009D46FFF7F5FF00218B460F461348144A1B
:1038E000121A2CF060FD0E4B002B00D098470D4BA8
:1038F000002B00D098470020002104000D000D4847
:10390000002802D00C4800E000BF20F00BFA200095
:10391000290020F0BDFF20F0F1F900BF00000800F1
:103920000000000000000000C00A0020240F00205A
:10393000F02A002000000000000000002DE9F04106
:10394000D0B004460D4606F077FC0B466DB9D4E9BD
:103950000421801A3E4A63EB0103824275EB0303A4
:1039600003D3207E50B0BDE8F08106F065FC002551
:1039700001230222C4E904016570217A2078658060
:10398000A58003F00BF84FF47A7001F081FF2B460D
:103990000422217AE061207803F000F840F24C40E4
:1039A00001F076FF01230222217AE061207802F003
:1039B000F5FF372001F098FF2946E061204620F00E
:1039C000B8FE013002D100202076CBE7012120464D
:1039D00020F0AFFE0130F6D06E463746002120467B
:1039E00020F0A7FE012180463860204620F0A1FE8D
:1039F000B8F1FF3F7860E6D00130E4D00235502DB9
:103A000007F10807EAD10022D6E90050691CDAD094
:103A1000431CD8D004EBE2014B7885424FEA4303C4
:103A2000DBB202F1010238BF43F00103282A4B70D8
:103A300006F10806E8D1A178637862790B44E17851
:103A40000B4421790B44DBB29A42BCD10120BBE785
:103A5000CF01010070B52F4D92B008AC0FCD0FC44F
:103A60000FCD0FC495E8030001250026032384E849
:103A70000300294C29462A20CDE90366CDE90566D5
:103A80008DF80E3007968DF808508DF809608DF886
:103A90000A608DF80B6002F01BF929463A2002F00B
:103AA00017F9204602F0BCFF02214FF4B06002F08B
:103AB0002FFC02233246204618498DF8173003F0B8
:103AC00035F840F272630B9340F2023332468DF8C0
:103AD0001900ADF82230009033462046104903F01B
:103AE0003FF890230A9008AA204605A98DF80930CE
:103AF0008DF8085003F05AF802AA204603A921F0D5
:103B000097F9084AD2F824332B43C2F8243312B071
:103B100070BD00BF700504000040005A002D310147
:103B20008096980000C00350531EDBB2F82B28BFCC
:103B3000F8224FF0FF3380F82A20044AC163C0E91D
:103B40000C23002380F83830704700BF38E6FFFFB1
:103B50004FF6FF7210B5074C0144884201D1104660
:103B600010BD10F8013B5340DBB234F8133083EA48
:103B70001222F2E79805040041F6C813F7B5D0E920
:103B80000C515D1941F10006044606F055FBA842B0
:103B900071EB06034FF00007C0F08B8000236361D8
:103BA0002361E360A360636023604FF6FF73424DBF
:103BB0003A460421CDE9007320460A2320F02CFE6A
:103BC00019222946204620F0F3FD192871D1B5F8B5
:103BD0000300033540BA80B21FF04CFB0022374B84
:103BE0001FF0ECFC1FF0A2FE20602B79A8781B06CA
:103BF00043EA0023E8780343687943EA00401FF072
:103C000039FB00222E4B1FF0D9FC1FF08FFE6060A5
:103C10002B7AA8791B0643EA0023E8790343687AE4
:103C200043EA00401FF026FB0022244B1FF0C6FC95
:103C30001FF07CFEA0602B7BA87A1B0643EA0023C2
:103C4000E87A0343687B43EA00401FF013FB00223D
:103C50001B4B1FF0B3FC1FF069FEE060E88940BA1F
:103C600080B21FF007FB0022144B1FF0A7FC1FF0CF
:103C70005DFE2061288A40BA80B21FF0FBFA002264
:103C8000104B1FF09BFC1FF051FE04F11803606104
:103C900004F12A0215F8011B03F8011B9342F9D124
:103CA0001922002104482CF07EFB06F0C5FAC4E975
:103CB0000C0103B0F0BD00BF5229002000002440D9
:103CC00000408F40000059401022014B1A6170479C
:103CD00000F003502DE9F04F2DED028B8A4D85B099
:103CE00000212846FEF72CFA002128468DED030A14
:103CF000FEF752FA854C8DED020A2046FFF73CFF95
:103D0000D4F800B0D4F804A0D4F80890D4F80C800B
:103D100027696669FEF7A0FADFED7D7A60EE277A03
:103D2000FDEEE77A17EE902A52BA0721EA801B20AF
:103D30006A1CB0EE408A10F049FC6B1C072200217F
:103D40001B2010F015FC04F1180212211E2010F0A7
:103D50003DFC04F118036F4C122200211E2010F0CC
:103D600007FC20F052FE20F051FE6B49206821F044
:103D7000A6FE032000F036FF80B16849206821F0DC
:103D80009EFE20F042FE20F041FE03981FF094FAC0
:103D900002460B462068624921F091FE032000F0A4
:103DA00021FF90B15D49206821F089FE20F02DFEB1
:103DB00020F02CFE02981FF07FFA0B46252100917F
:103DC00002465849206821F07AFE032000F00AFFDD
:103DD00080B15249206821F072FE20F016FE20F0DA
:103DE00015FE58461FF068FA02460B4620684E49F9
:103DF00021F065FE032000F0F5FE80B14749206800
:103E000021F05DFE20F001FE20F000FE50461FF084
:103E100053FA02460B462068444921F050FE032025
:103E200000F0E0FE80B13D49206821F048FE20F01E
:103E3000ECFD20F0EBFD48461FF03EFA02460B4633
:103E400020683B4921F03BFE032000F0CBFE80B10F
:103E50003249206821F033FE20F0D7FD20F0D6FD56
:103E600040461FF029FA02460B462068314921F0EE
:103E700026FE032000F0B6FE80B12849206821F01C
:103E80001EFE20F0C2FD20F0C1FD38461FF014FADE
:103E900002460B462068284921F011FE032000F05D
:103EA000A1FE80B11D49206821F009FE20F0ADFD82
:103EB00020F0ACFD30461FF0FFF902460B462068AB
:103EC0001E4921F0FCFD032000F08CFEB0B1134927
:103ED000206821F0F4FD20F098FD20F097FD18EE09
:103EE000100A1FF0E9F902460B462068144905B094
:103EF000BDEC028BBDE8F04F21F0E1BD05B0BDEC9B
:103F0000028BBDE8F08F00BF300F0020580F00205B
:103F100000007A44E813002098070400BD0704005D
:103F2000C2070400D6070400E7070400F6070400F0
:103F300005080400120804002208040034080400E4
:103F40004608040010B507220221184820F0E4FBBF
:103F5000174BF82219681748FFF7E6FDFFF77AFDBF
:103F6000002304221846114602F018FD0023042203
:103F70000321022002F012FD0023042219461846F4
:103F800002F00CFD002304220321012002F006FDB3
:103F9000042200231146012002F000FDBDE810407C
:103FA000002304220621022002F0F8BC300F00207A
:103FB000C80A0020580F002008B50D4B1B78ABB184
:103FC00006F03AF90B4AD2E90032C01A0A4B61EB0B
:103FD000020183424FF000038B4107D21022074BAE
:103FE00007481A61BDE8084000F078BE08BD00BF70
:103FF0006B290020500F0020D001010000E0035089
:104000007C120020F0B50368A64A23F47F4323F016
:104010000703934207468BB000F0F0810AD8A2F55F
:104020001022934243D002F5A022934200F07D81FA
:104030000BB0F0BD9C4A9342FAD19C4800F04EFE72
:1040400000239B4A9B4C137001224FF47A7100921B
:1040500099489A4A00F05CFE0221207810F01CFA80
:104060000546002800F08B81954C9649206821F088
:1040700026FD9549206821F022FD20F0C6FC20F0A5
:10408000C5FC924B924A009392498823206821F004
:1040900016FD91492B46914A206821F010FD2846D3
:1040A00000F0E6FD8E49206821F009FDFEE70DF1E4
:1040B0001F0108A810F0A0FA054610B3804C8149F2
:1040C000206821F0FCFC8049206821F0F8FC20F0F9
:1040D0009CFC20F09BFC7D4B7D4A00937D495B233B
:1040E000206821F0ECFC7C492B467C4A206821F0BA
:1040F000E6FC284600F0BCFD7949206821F0DFFC91
:10410000FEE7032000F06EFD20B36D4C754920687A
:1041100021F0D5FC20F079FC20F078FC9DF82030CF
:104120009DF81F0004939DF821306F4903939DF87B
:1041300022306E4A02939DF82330002808BF0A46B9
:1041400001939DF824306A49009320689DF825303A
:1041500021F0B5FC574E304610F064F9054610B317
:10416000574C5849206821F0AAFC5749206821F093
:10417000A6FC20F04AFC20F049FC544B544A009322
:1041800054496623206821F09AFC53492B46534A30
:10419000206821F094FC284600F06AFD5049206810
:1041A00021F08DFCFEE70221307810F075F904460D
:1041B00010B3434D4349286821F081FC42492868E7
:1041C00021F07DFC20F021FC20F020FC3F4B404AF8
:1041D000009340496923286821F071FC3E49234639
:1041E0003E4A286821F06BFC204600F041FD3C4926
:1041F000286821F064FCFEE7A022009003461146E7
:10420000307810F027F9054610B32D4C2D49206861
:1042100021F055FC2C49206821F051FC20F0F5FBE1
:1042200020F0F4FB294B2A4A00932A497023206886
:1042300021F045FC28492B46284A206821F03FFC04
:10424000284600F015FD2649206821F038FCFEE7DD
:104250000221307810F034F9054600284AD0184C75
:104260001849206821F02BFC1749206821F027FC11
:1042700020F0CBFB20F0CAFB144B154A00931549E4
:104280007323206821F01BFC13492B46134A206836
:1042900021F015FC284600F0EBFC1149206821F0C4
:1042A0000EFCFEE7A0000A00A0000601B4120020E8
:1042B0006B290020240D00207C120020C93C010045
:1042C000E8130020BB070400720804002009040062
:1042D00077080400800804008F0804008C0804009C
:1042E000A4080400BD070400640804005608040084
:1042F000B5080400032000F075FC60B17B4C7C49DC
:10430000206821F0DCFB20F080FB20F07FFB794966
:10431000206821F0D4FB01234FF47A71009300232D
:10432000754A764800F0F4FC82E6032000F05AFC5F
:1043300060B16E4C6E49206821F0C1FB20F065FB36
:1043400020F064FB6E49206821F0B9FB01246B4822
:1043500000F0C4FC6B4B684A1C7064210023674862
:10436000009400F0D5FC05F067FF674B674AC3E98E
:104370000001002340F6B83165480094D2E70221DD
:10438000207810F09DF8054610B3584C614920681C
:1043900021F095FB6049206821F091FB20F035FB6E
:1043A00020F034FB5D4B5E4A00935E498B2320680E
:1043B00021F085FB5C492B465C4A206821F07FFB9D
:1043C000284600F055FC5A49206821F078FBFEE7AA
:1043D000032000F007FC00283FF42AAE434C444978
:1043E000206821F06CFB20F010FB20F00FFB41490E
:1043F00020680BB0BDE8F04021F061BB3B4E4D4C56
:1044000020F003FB20F002FB4B49306821F057FB02
:1044100001220021494BB7F80500009410F076F80E
:104420000546C0B1012000F0DDFBA0B14449306871
:1044300021F045FB20F0E9FA20F0E8FA3A492B4652
:104440003A4A306821F03BFB284600F011FC3D4918
:10445000306821F034FB032000F0C4FB60B1244934
:10446000306821F02CFB20F0D0FA20F0CFFA22782F
:104470003549306821F023FB002D7FF4D9ADB7F822
:104480000530223B082B3FF6D3AD01A252F823F0B2
:10449000B544010031400100BF440100314001003A
:1044A000D144010031400100DB44010031400100F2
:1044B000E3440100042203212378022003E00021C9
:1044C0000422084623780BB0BDE8F04002F066BA3B
:1044D0000422032123780120F5E7042223781146E2
:1044E000F9E7042206212378E7E700BFE81300205C
:1044F000BD070400EA080400C93C01007C1200204A
:10450000FF0804006B290020500F0020D53C01005B
:10451000B4120020BB070400720804002009040044
:1045200077080400800804008F0804008C08040049
:10453000A40804006C29002012090400EC120020D9
:1045400017090400911504001C09040030B5036824
:104550007F4A23F47F4323F00703934289B040F05E
:10456000F4800822002112207A4B10F001F8044652
:1045700010B3794D7949286821F0A1FA7849286863
:1045800021F09DFA20F041FA20F040FA754B764A6E
:10459000009376493D23286821F091FA7449234617
:1045A000744A286821F08BFA204600F061FB7249BA
:1045B000286821F084FAFEE70146032214206F4B9D
:1045C0000FF0D6FF044610B3634D6449286821F00C
:1045D00076FA6349286821F072FA20F016FA20F082
:1045E00015FA604B604A009360494B23286821F01C
:1045F00066FA5F4923465F4A286821F060FA204640
:1046000000F036FB5C49286821F059FAFEE70146C4
:10461000052216205A4B0FF0ABFF054610B34E4C47
:104620004E49206821F04BFA4D49206821F047FAA5
:1046300020F0EBF920F0EAF94A4B4B4A00934B4942
:104640005923206821F03BFA49492B46494A206802
:1046500021F035FA284600F00BFB4749206821F08D
:104660002EFAFEE70DF10F0104A80FF0C5FF044676
:1046700010B3394D3949286821F021FA38492868A2
:1046800021F01DFA20F0C1F920F0C0F9354B364A6F
:10469000009336496423286821F011FA34492346EF
:1046A000344A286821F00BFA204600F0E1FA32493A
:1046B000286821F004FAFEE79DF8153001468DF8D0
:1046C00018309DF8143008228DF819309DF81330F9
:1046D00018208DF81A30FF238DF81B30FE238DF83B
:1046E0001C309DF812308DF81D309DF811308DF87A
:1046F0001E309DF810308DF81F3006AB0FF038FFDC
:10470000054610B3144C1549206821F0D8F9144916
:10471000206821F0D4F920F078F920F077F9114BD6
:10472000114A009311497423206821F0C8F91049F7
:104730002B46104A206821F0C2F9284600F098FA6A
:104740000D49206821F0BBF9FEE709B030BD00BF7C
:10475000A00001002F090400E8130020BB0704009B
:10476000720804006A090400380904008008040083
:104770008F0804008C080400A408040060090400E9
:104780006409040010B5234C01F07EFB01F09EFD8E
:10479000236F23F0070343F00303236720F0CDFAD0
:1047A0001D4B00209B6A9B075EBF01221B4B9A6238
:1047B000D4F8203123F0030343F00203C4F820317E
:1047C000D4F8243123F0070343F00203C4F8243162
:1047D000D4F8403123F0030343F00203C4F840311E
:1047E000D4F8603123F0030343F00203C4F86031CE
:1047F000D4F8403223F0030343F00203C4F84032FC
:10480000D4F8003223F0070343F00203C4F8003267
:1048100010BD00BF0080005000C0005000E00050FC
:1048200008B502F0C1FC01280ED1144B04205A6EC9
:104830004FF480231249520358BF124A4B6601F5C8
:104840001041086258BF536604F032FB20F0EAF8CA
:1048500004F0BCFA04F016FB04F0DAFA21F0E8F8F0
:10486000FFF790FF04F0C2FA20F0D3F800F0FEFB4F
:1048700000F010FFBDE8084004F080BF0080005049
:104880000090005000A0005070B51F4D94B00DACCA
:104890000FCD0FC495E807002923002584E8070001
:1048A0001A4A1024CDE90223194B4FF41656CDE9CC
:1048B00004354FF480732246294609A806930F96C3
:1048C0002BF071FD4FF4A021124B0DAACDE9071377
:1048D0000F238DF82430104B07A90A9320230B9344
:1048E00001238DF831300D4B0D48009302AB8DF84C
:1048F000254004F027FD04462946304620F0C6F83E
:10490000204614B070BD00BF780D040000000650B2
:1049100001010102240006506D290020F012002040
:10492000A013002030B51F4D95B00DAC0FCD0FC4B6
:1049300095E80700282384E807001B4A0024CDE9F6
:1049400002230523CDE904448DF8113006232146C6
:10495000102209A88DF8133006942BF024FD4FF493
:104960008021124B0DAACDE907130D238DF82430B9
:104970000E238DF825300E4B07A90A9350230B9375
:1049800001238DF831300B4B0B48009302AB04F040
:10499000D9FC054621464FF4E13020F077F828464F
:1049A00015B030BD780D040000C0055024C005507E
:1049B0008D29002044130020C4130020831E012BE6
:1049C00010B520D801291ED801211C4C0846236CA3
:1049D0000422C3F3400301F0E1FF2369042205210F
:1049E0000020C3F3401301F0D9FF154B1B68186872
:1049F00008B1436A9847134B1B681868E8B1BDE8D3
:104A00001040436A18478B1E012B14D8012814D874
:104A100001210A4C0846236C0022C3F3400301F035
:104A2000BDFF002223690521BDE810401046C3F3F5
:104A3000401301F0B3BF0129D7D910BD00C0035006
:104A4000CC0A0020D00A002008B50549054804F02A
:104A500059FFFFF719FFBDE80840FFF763BF00BF2C
:104A6000C00A002098130020014821F094B900BF2B
:104A7000A0130020014821F08EB900BFC41300200C
:104A8000014B1A6A18681047A0130020014B1A6ADC
:104A900018681047C41300207FB500240368464AF5
:104AA00023F47F4323F00703934205468DF8084023
:104AB0008DF809408DF80A408DF80B408DF80C40B8
:104AC0008DF80D406DD002F18272934271D1B0F831
:104AD00005302D2B6DD1FF2304A91A4611E90300DF
:104AE0001FF08CFF012814BF41F2FC14334B4FF030
:104AF0002D0108BF187004F0FC0228790FF04EFD5C
:104B0000064610B32E4C2F49206820F0D8FF2E49BE
:104B1000206820F0D4FF1FF078FF1FF077FF2B4BA9
:104B20002B4A00932B494E23206820F0C8FF2A49C6
:104B300033462A4A206820F0C2FF304600F098F839
:104B40002749206820F0BBFFFEE71C4B1B78002B99
:104B50002FD028790FF0C8FC054650B3184C1949DE
:104B6000206820F0ACFF1849206820F0A8FF1FF053
:104B70004CFF1FF04BFF154B154A0093154954236A
:104B8000206820F09CFF14492B46144A206820F02E
:104B900096FF284600F06CF81149206820F08FFF3E
:104BA000FEE7064B1B7823B104B0BDE8704021F04E
:104BB00025BA04B070BD00BFA0000601DD290020A9
:104BC000E8130020BB07040072080400020E040072
:104BD000940D0400800804008F0804008C08040071
:104BE000A40804000B4B02461B788BB10A4B1B78C0
:104BF000834234BF00200120084B1B783BB1084B97
:104C00001B7843FA02F212F0010F08BF0020704730
:104C10000120F1E7250D0020260D0020DE290020CF
:104C2000270D0020012208B5074B1A700022074B00
:104C30001A700422064B1A701F22064B1A7004F0D9
:104C400061F9054B186008BD250D0020DE29002004
:104C5000260D0020270D0020E8130020024B0349F9
:104C6000186820F02CBF00BFE8130020220E0400BB
:104C700070B50C4C0C490646206820F020FF04F06B
:104C800041F90546206804F031F93046FFF7E6FFA8
:104C9000284604F02BF920680449BDE8704020F054
:104CA0000EBF00BFE8130020240E0400260E0400EF
:104CB000002209490B684BB1834204D1836A4AB18F
:104CC0009362012070471A469B6AF4E70028F5D0EA
:104CD000184670470B60F4E7EC13002010B504464B
:104CE00090B105F01FFA2046FFF7E2FF58B194F8A3
:104CF0002C0040B120F03DF8044A1368013B1360DA
:104D000020F03DF8002010BD2220FCE7F013002029
:104D10002DE9F04F85B00546914698460E469DF820
:104D2000387009B9002F62D12846FFF7D7FF044633
:104D300000283CD185F82C00686305F0F7FA86421C
:104D400039D905F093FA40F2E7318C462146E6FB6B
:104D500000C14FF47A72604600231EF037FE4FF018
:104D6000FF32002383468A461EF030FE4FF0FF32AA
:104D7000E8860023584651461EF028FE2B46114671
:104D80002846CDE900441B4A21F0C5F8044670B915
:104D9000194AC5E90898136885F82D702E6323B366
:104DA0001A469B6A002BFBD195620023AB6220461A
:104DB00005B0BDE8F08F47B12B4631462846CDE916
:104DC00000440C4A05F076FAE0E7304603A905F006
:104DD00053FA04460028EAD12B462846CDE900774D
:104DE000044A039921F073F8D0E71560DDE7212428
:104DF000DDE700BFFD4D0100EC13002091F82C30E1
:104E000013B50C4683B98B8ECA8E93420ED243B92A
:104E1000CDE9003320460B46104A4FF0FF3121F018
:104E20003AF8A38E0133A38602B010BD52B191F8B7
:104E30002D307BB101230093D1E908232046096B73
:104E4000FFF766FF0123064A84F82C30136801330C
:104E50001360E9E7084605F065F9F3E7FD4D010049
:104E6000F013002070B5104D2B681BB100260F4BBE
:104E70001C6804B970BD94F82C3093B11FF079FF11
:104E80002B6884F82C60013B2B601FF078FF94F8AE
:104E90002D3013B92046FFF70BFFD4E90831204627
:104EA0009847A46AE5E700BFF0130020EC13002048
:104EB000034B1B68002B0CBF01200420704700BF70
:104EC000F0130020024B1868B0FA80F040097047D8
:104ED000F013002007B508201FF0F7FD02238DF81E
:104EE0000030054B684601931FF0A0FD082003B079
:104EF0005DF804EB1FF0F5BD006A181008B500F06E
:104F00002DF8124B12498B4212D30020114B12493B
:104F10008B4218D3FEF7D8FC186850F82240586826
:104F200040F82240013298688242F5D30C33EAE718
:104F30000022F8E71C6844F8220001325C68A242B3
:104F4000F8D30833E4E70022F8E700BF845C0400EC
:104F5000905C0400905C0400905C04004FF40041FD
:104F60004FF0FF30124B134A10B59A60D3F88820E7
:104F700042F47002C3F888200F4A916601F188411B
:104F800001F5005210664FF6DF7050660220C3F83C
:104F9000D000BFF34F8FBFF36F8F08244FF440331F
:104FA0000648C0F88041D36004600B6110BD00BFAB
:104FB00000ED00E0002001000090005000E100E062
:104FC000014B1868704700BFD80A0020084B1B6FC0
:104FD00003F00703022B04D0032B05D0012B05D0CF
:104FE000FEE7044B18687047034BFBE70348704724
:104FF00000800050D80A0020DC0A0020002D31017A
:1050000008B5FFF7E3FF054B1B6FC3F30333013311
:10501000B0FBF3F0024B186008BD00BF00800050E9
:10502000D40A00200048704700B4C404014B18683B
:10503000704700BFDC0A0020054B1860054B1B6F52
:1050400003F00703032B01D1FFF7DABF704700BF5E
:10505000DC0A00200080005000487047002D31011C
:10506000014B1868704700BFE00A00200020836AE7
:1050700010B5B3F5903F0ED21968084A91420AD193
:10508000074C227812F0FD0F04D1DB69984708B96C
:105090000123237010BD4FF48170FBE707B0CD5E94
:1050A000DF2900204FF00053074A1A60BFF34F8FEB
:1050B0000649074BCA6802F4E0621343CB60BFF3B2
:1050C0004F8F00BFFDE700BF02020FF000ED00E0D0
:1050D0000400FA0505490A681318054883428CBF85
:1050E0004FF0FF320B601046704700BFE40A00200B
:1050F0000080002008B501213A2000F0E9FD0321DD
:1051000001230422002001F049FC00201FF052FE80
:105110000122214B4FF46070C3F844241FF045FD79
:105120001E4B00F5D520D3F8F02000F2FC4042F0F1
:105130000102C3F8F020D3F8FC2042F08072C3F8DB
:10514000FC20174AA3F55D431A60164B0222B0FB00
:10515000F3F0154B01381861C3F8F0204FF480725A
:10516000C3F804234FF06043104A0020C3F8B02F67
:105170000F4AC3F8802ED3F8002E42F48072C3F891
:10518000002EFF2283F82020D3F8002E22F4807214
:10519000C3F8002E08BD00BF00D0035000ED00E0B2
:1051A000FF030040F8590D00000004E055CEACC5E7
:1051B000090001004FF06043D3F8802E30B5D207CC
:1051C00015D501240B4D8440D5F8FC2042F08072A7
:1051D000C5F8FC20D3F8002E2243C3F8002E53F864
:1051E0002020002AF0D003F82010002030BD11202C
:1051F000FCE700BF00ED00E02DE9F04F9A46564B6A
:1052000085B01B7806460F461546DDF83C909DF8A4
:1052100044B0DDF85080002B00F08D80072A00F2AA
:105220008C800E9B002B00F08880B9F1000F00F0FD
:105230008480129BB3F5006F7FDC012802D1109BA4
:10524000002B7AD0454B03EB05131B7B002B76D04C
:10525000434C1022002168462BF0A5F804EB4514BE
:105260001022002F59D1394620462BF09CF843F2EA
:1052700010036380BBF1000F03D1E37843F0030315
:10528000E370374A0E9B02EB451CCCE90193129B5D
:105290006901013BC3F30A009DF84C30012E03F075
:1052A00003034FEA836343EA001E53582D48CDF8A9
:1052B00000A000EA03004EEA0003535041D113233B
:1052C0000CF1100ECCF80C309CE80F008EE80F00AB
:1052D0006FF00301DCF81C20109B61F39F02012F8B
:1052E000CCF81C20CCF8143003D1CCF81890CCF8B2
:1052F00004300027194A290102EB051342F8018006
:10530000159A28465A60694622469F605E7301F0EE
:105310002FFE384605B0BDE8F08F002120462BF067
:1053200042F84FF444736380BBF1000FA9D1E378D6
:1053300043F03003A4E70C48ECE70C48EAE70C48DC
:10534000E8E7B8F1000FD4D19CF8023068F30413F9
:105350008CF80230CDE700BFE0290020F4130020D4
:10536000741400200F80FFF3028000F0018000F031
:10537000078000F038B5124B05461B78DBB1E0B171
:105380001FF0F7FC0F4A00231146147B54B92B6021
:1053900001251A0101EB03131D738C501FF0EFFC64
:1053A000204638BD0133082B02F11002EDD11FF069
:1053B000E6FC0548F5E70548F3E70548F1E700BFD7
:1053C000E0290020F4130020048000F0028000F0A7
:1053D000018000F013B51FF0CCFC00230B4A147BB6
:1053E0007CB90133082B02F11002F8D1019001F0D1
:1053F00061FD074B01981C701FF0C1FC204602B0F4
:1054000010BD1FF0BCFC0348F9E700BFF4130020F7
:10541000E0290020058000F00D4B10B51B780446F4
:1054200093B1072812D81FF0A4FC0A4B03EB041316
:105430001A7B2AB100241C731FF0A1FC204610BD6A
:105440001FF09DFC0448FAE70448F8E70448F6E733
:10545000E0290020F4130020068000F0028000F014
:10546000018000F0154B13B51868002301908DF8EA
:1054700004301FF07EFC124B1C7824B11FF07FFC1F
:10548000104802B010BD01221A701FF078FC0E4BBC
:1054900001A81C731C7783F82C4083F83C4083F8E8
:1054A0004C4083F85C4083F86C4083F87C400823D0
:1054B0008DF8073001F02AFD2046E2E77C0E04005B
:1054C000E0290020038000F0F41300200A4A08B508
:1054D00012785AB107280BD8084A02EB00131B7B3D
:1054E00043B1002101F004FD002008BD0448FCE7A1
:1054F0000448FAE70448F8E7E0290020F413002004
:10550000028000F0018000F0078000F00A4A08B530
:1055100012785AB107280BD8084A02EB00131B7BFC
:1055200043B1012101F0E4FC002008BD0448FCE780
:105530000448FAE70448F8E7E0290020F4130020C3
:10554000028000F0018000F0078000F00A4A08B5F0
:10555000127852B107280AD8084A02EB00131B7BC5
:105560003BB101F053FD002008BD0548FCE70548AC
:10557000FAE70548F8E700BFE0290020F41300200F
:10558000028000F0018000F0078000F00D4B1B78D6
:1055900093B1072812D889B10B4B03EB00131B7B87
:1055A00073B10A4B1A6D012303FA00F010401ABFC1
:1055B00000200B7008707047054870470548704719
:1055C00005487047E0290020F41300200000045033
:1055D000028000F0018000F0078000F00B4A10B557
:1055E00012780C4662B107280CD859B1084A02EB70
:1055F00000131B7B43B101F01BFD2070002010BD88
:105600000448FCE70448FAE70448F8E7E0290020EA
:10561000F4130020028000F0018000F0078000F009
:105620002DE9F843174B1F6D5B6D1F4000D5FEE75A
:1056300001260025144CDFF85480DFF854903742DF
:1056400017D02368C8F850609BB1A1682846013183
:105650006268A1609847637B012B0AD148B909EBC6
:1056600045131A7B60F341021A731A7F60F34102FB
:105670001A770135082D4FEA460604F11004DED1F1
:10568000BDE8F88300000450F4130020002004500B
:1056900074140020024B1968024B186816F084BB82
:1056A000EC0A0020E80A002037B5920004460D46B7
:1056B00001922AF055FF431C0BD060B929462046C1
:1056C000019A2AF039FE0028044808BF002003B0E0
:1056D00030BD0348FBE70348F9E700BF10E000F0E6
:1056E00021E000F024E000F010B504462AF028FF85
:1056F000431C10D088B901F05FFD234620F0030061
:105700002044984201D1002010BD53F8042B0132EF
:10571000F7D00348F8E70348F6E70348F4E700BF8B
:105720000EE000F021E000F024E000F008B51FF0EA
:1057300019FB014B186008BDB41B0020014B186811
:105740001FF014BBB41B002010B504461FF011FB62
:10575000124B13495A6A09688C422CBF121952180D
:10576000196B102192B29A660E4A51619A690A43E6
:105770009A611FF004FB0C4A0C4913783BB10023DB
:105780001370064A936923F01003936110BD0B69EF
:1057900023F004030B6130BFEFE700BF008004502B
:1057A0006C1C002000A00450E129002000ED00E066
:1057B000102270B5012488B000210DEB02002AF000
:1057C000F2FD0D22002168468DF810402AF0EBFD15
:1057D00002232146254C24208DF8063000F078FA6B
:1057E0006A46002120461FF0CFFB236B4FF6FF7364
:1057F000E36100231E4DADF81230204604A91FF0CE
:105800006FFB4FF480601FF0D0F9BDF81230013308
:10581000B0FBF3F09BB2B3F5806F2860ADF81230A7
:1058200002D2144B9842E8D800201FF0BEF92E682F
:105830000025114C2946B4FBF0F410480023E6FB88
:1058400004010F4A1EF0C2F80E4B084A18600E4BB6
:105850001D70936923F01003936180220B4BC3F8F2
:1058600080211A60284608B070BD00BF0080045037
:10587000681C002080841E0000B0710B20A107006E
:1058800040420F006C1C0020E129002000E100E0F4
:105890000021F8B5104B114C1D68114AE5FB004181
:1058A000002320461EF092F84FF6E95704460D46B5
:1058B0000C4EBC4275F1000305D2A0B208B1FFF74F
:1058C00043FF0020F8BD4FF6E850FFF73DFFA41955
:1058D00065F10005EDE700BF681C002020A107006E
:1058E00040420F001802FFFFF7B500211A4B1B4C76
:1058F0001D681B4AE5FB0041002320461EF066F8A8
:105900004FF6E9564FF6E757164C174DB04271F176
:10591000000311D280B260B112494A6A92B24B6A56
:105920009BB2ADF80630BDF806309B1A9BB2984288
:10593000F5D8002003B0F0BD626A92B2636A9BB2F0
:10594000ADF80430BDF804309B1A9BB2BB42F5D9C8
:10595000401961F10001D9E7681C002020A107006F
:1059600040420F00008004501802FFFF054B5B69A6
:10597000DB0605D51022044B5A610122034B1A7035
:10598000704700BF0080045000A00450E1290020AF
:10599000044BD3F88420D206FBD4D3F88400C0F3A0
:1059A000811070470040005038B5104B0546D3F8C1
:1059B00020310C4603F00303022B0BD0032B0DD038
:1059C000012B0FD1FFF7FCFA052305B1286004B1C4
:1059D000236038BDFFF72AFB0323F6E7FFF73CFB04
:1059E0000223F2E701230020EFE700BF0080005010
:1059F00073B50D4600210E4B0191D3F88041064648
:105A000004F00304012C09D0022C0CD00C460EB17A
:105A1000019B336005B12C6002B070BD01A8FFF797
:105A2000C3FF0F24F3E7FFF717FB0190EFE700BF79
:105A30000080005038B5184B0546D3F824010C46B9
:105A400000F00700062805D8DFE800F0230B131B41
:105A50001F0F17000023184605B1286004B123600A
:105A600038BDFFF7ADFA0523F6E7FFF7A9FA0623DD
:105A7000F2E7FFF7DBFA0323EEE7FFF7D7FA042399
:105A8000EAE7FFF7E9FA0223E6E71FF00FF807233A
:105A9000E2E70123E0E700BF0080005038B5104B7B
:105AA0000546D3F840310C4603F00303022B0BD01C
:105AB000032B0DD0012B0FD11EF0FAFF092305B1E6
:105AC000286004B1236038BDFFF7CAFA0823F6E75F
:105AD0001EF0F1FF0B23F2E701230020EFE700BFE8
:105AE0000080005038B5144B0546D3F800020C4630
:105AF00000F00700042804D8DFE800F01B0A0E12AB
:105B000016000023184605B1286004B1236038BD93
:105B10001EF0CEFF0923F6E7FFF7A2FA0823F2E70B
:105B20001EF0C9FF0B23EEE7FFF76AFA0E23800A87
:105B3000E9E70123E7E700BF0080005038B5104BCC
:105B40000546D3F840320C4603F00303022B0BD07A
:105B5000032B0DD0012B0FD11EF0AAFF092305B195
:105B6000286004B1236038BDFFF77AFA0823F6E70E
:105B70001EF0A1FF0B23F2E700231846EFE700BF5A
:105B80000080005038B5104B0546D3F860310C4604
:105B900003F00303022B0BD0032B0DD0012B0FD1ED
:105BA0001EF086FF092305B1286004B1236038BDCB
:105BB000FFF756FA0823F6E71EF07DFF0B23F2E706
:105BC00001230020EFE700BF0080005010B40D4C0F
:105BD0000B46D4F8204204F00304012C0AD0022C16
:105BE0000CD008B1002101600BB100221A605DF8F1
:105BF000044B70475DF8044BFFF7D6BE5DF8044BCD
:105C0000FFF74CBF0080005038B50C4605461FF02A
:105C1000A9F8064B9A6A82EA040101EA0504544095
:105C20009C62BDE838401FF0A1B800BF00C0005022
:105C3000B0F5207F1FD009D8B0F5007F15D003D86C
:105C400068B1B0F5C07F0AD000200CE0B0F5607FED
:105C5000FAD10B4BD3F88000C0F3011003E0084BDE
:105C6000186FC0F3033001307047054BD3F8900034
:105C7000C0F30460F7E7024B186FC0F38020F2E72F
:105C8000008000504FF400320E4B014610B500204A
:105C90009A66FFF7CDFF41F6713248430A490B4B34
:105CA00088428CBF4FF480100020DC69DA639A6868
:105CB00022F4401202439A60E20344BF0022DA63F6
:105CC00010BD00BF00900050005A62020000035057
:105CD000420910B510D0012A10D00B4B0B4C022AF0
:105CE00018BF234600F01F0051B103F58053012275
:105CF00002FA00F0186010BD1346F3E7044BF1E719
:105D000003F50053F3E700BF688000506082005045
:105D10006480005008B580201EF047FF034B984276
:105D20009EBF4FF48032024B1A6708BD005A6202D0
:105D300000A000501FB50023B0F5807F019377D0FD
:105D400028D8382800F094800BD82438092810D897
:105D500009280ED8DFE800F0676767670D0D620D50
:105D6000377D52285FD008D83D283BD03E2800F030
:105D70008480019805B05DF804FB8028F9D1414B7F
:105D80001B6F03F00703013B032BF2D8DFE803F09E
:105D900044413F6CB0F5D06F5BD019D8B0F5A06F1F
:105DA00066D00AD8B0F5806F3DD0B0F5906FE0D1E5
:105DB000002001A9FFF73EFEDBE7B0F5B06F2DD064
:105DC000B0F5C06FD5D1002001A9FFF767FED0E77D
:105DD000B0F5006FECD00AD8B0F5E06F4DD0B0F55B
:105DE000F06FC6D1002001A9FFF7CCFEC1E7B0F5E6
:105DF000086FBED1234BD3F8003103F00303022B0D
:105E00002CD0032B2ED0012B30D1FFF70FF9032319
:105E100000E005230193ACE70223FBE7002001A982
:105E2000FFF7E6FDA5E7002001A9FFF7BDFDA0E70C
:105E300002934FF0E0231B695B0705D5FFF7E0F8FD
:105E40000C230393039BE5E703A902A8FFF726FEB3
:105E5000F8E7002001A9FFF745FE8AE7FFF700F900
:105E60000823D7E71EF022FE0723D3E70123D1E75B
:105E7000002001A9FFF7AAFE7BE7002001A9FFF798
:105E80005DFE76E7008000504FF40022034B5A6617
:105E9000012203F580439A62704700BF00900050D2
:105EA00008B5FFF747FF082811D00938012811D895
:105EB0004FF40012094B4FF6FF705A6603F5D833C2
:105EC0005B6A13F0010F18BF4FF4FA7008BD044B62
:105ED0001888FBE74FF6FF70F8E700BF009000500E
:105EE000120D002070B504468020FFF723FF032821
:105EF00000F082804FF40022444B02215A6645F69E
:105F00000E03434AC2F88030424B9962012103F5E7
:105F100080539962936DD903FCD4D4E900131B0517
:105F200043EA0163E17B94F822500B43217B94F810
:105F3000236043EA0143617B43EA0133A17B43EAE7
:105F4000811313619169D4E904031B0643EA80635A
:105F500001F000410B43A17EE07E0B43217E43EA2A
:105F60000143617E43EA01239361E369126A002BD6
:105F70000CBF0021082122F00D0242EA030242EA8E
:105F80008002234B42EA01021A6294F820204FEA71
:105F9000421232D1986A94F8211020F0330042EA7C
:105FA0000112024342F001029A621B4A996D32EAE1
:105FB0000101FBD1022217498A621A659A6D5200CB
:105FC000FCD41869A26820F4700040EA02504FF037
:105FD000004218610F4B9A611DB9022203F58053EC
:105FE0009A6216B901220D4B9A6294F824301BB1C3
:105FF000074B0B4AC3F8802070BD996A21F033012A
:1060000031430A4342EA4502EEE700BF00900050E8
:1060100000C0005000D000500300014000E00050DC
:10602000F1A7FFFF1E4B13B5996A9A6D12F4803FDA
:1060300018BF01241B4A18BF9462022494629B6D0E
:10604000DB0303D5164A936D9C07FCD50222154B42
:10605000134C1A65A36D5B00FCD4134BA26993F932
:10606000003022F47F020344000222F47F4280B217
:1060700083F30803104340EA0340A061022001912A
:10608000FFF7C2FDA36D019913F4803F05D00120F5
:1060900002B0BDE81040FFF7B7BD02B010BD00BFB1
:1060A00000C0005000D00050E2290020014B93F9BD
:1060B00000007047E229002001221248124B816A39
:1060C0009A62826D02F00302032AFAD102229A62D6
:1060D0001A650C4B9A6D5000FCD401209A6D0A4A47
:1060E00010659A6D9207FCD4064B9A6D9007FCD50B
:1060F0000220054A10659A6D9207FCD50320FFF730
:1061000083BD00BF00C0005000D00050F0B5D0E902
:1061100001434FF480061A4A4178057856664FF4D9
:10612000D156022702F5B8325662164E4F297760D3
:106130004FF0010728BF4F2106F58056776016699A
:10614000F603FCD441EA052151611B01417B43EA7E
:1061500004230B43017B43EA41039360C37B817BB0
:106160001B0143EA4113417C0B43017C43EA410399
:106170005360837C13B16FF4D1535362F0BD00BF01
:106180000090005000100250014B1880704700BF73
:10619000120D0020014B1880704700BF100D002029
:1061A0004FF4001208B5184B5A660223174A536081
:1061B000936813F48033FBD1012822D1FEF736FF18
:1061C000134B984215D003F5122303F5F863984258
:1061D00013D0104B00EB8002400AB3FBF0F0520AE0
:1061E0000A4BDA62012218635A620022074B5A6096
:1061F00008BD45F67A10084AF2E745F61A00074A44
:10620000EEE75362F1E700BF0090005000400250FB
:1062100000F0490264666666D8B80500BBCF050089
:10622000B0F5207F10B50C4642D008D8B0F5007FFD
:1062300033D003D888B1B0F5C07F0ED010BDB0F513
:10624000607FFBD11F4B013CD3F8801021F030015F
:1062500041EA0414C3F88040F0E71EF09EFC1EF0F3
:1062600067FD4FF48031184A164B1167196F013CD6
:1062700021F4704141EA04341C67FEF7C1FE044674
:10628000FFF786FBC0F1020120461EF04BFD00F037
:106290002DF8BDE81040FFF73DBD0A4B013CD3F897
:1062A000901021F0F85141EA0464C3F89040C5E72A
:1062B000044B013C196F21F4806141EA84241C677E
:1062C000BCE700BF008000500090005008B50121DD
:1062D000022000F065FA1EF060FC1EF029FD4FF46C
:1062E0008032014B1A6708BD0090005008B54FF48A
:1062F000C0701EF05AFCBDE80840044988428CBFBB
:10630000022101214FF42070FFF78ABF80F0FA02CA
:10631000B0F5807F70B50C4600F0F88029D8382899
:1063200000F04B8110D82438092816D8092814D831
:10633000DFE810F0DC00DC00DC00DC001300130000
:10634000CD00130047003301522800F0CF8005D85C
:106350003D2851D03E2800F0418170BD8028FCD1FD
:106360008B1E052B00F2B080DFE803F0AB99AE691D
:10637000AEA8B0F5D06F00F0108132D8B0F5A06FA4
:1063800000F01B8116D8B0F5806F00F0AF80B0F53B
:10639000906FE2D1023C052C8CBF0021974B984AAC
:1063A00098BF195DD2F8243123F007030B43C2F8DC
:1063B0002431D2E7B0F5B06F00F08980B0F5C06F3E
:1063C000CBD1083C032C8CBF00218E4B8C4A98BF4C
:1063D000195DD2F8403123F003030B43C2F840317A
:1063E000BBE7B0F5006FD5D016D8B0F5E06F00F080
:1063F000F580B0F5F06FB0D1083C032C8CBF0021C4
:10640000814B7F4A98BF195DD2F8603123F00303B6
:106410000B43C2F86031A0E7B0F5086F9DD1CC1EE8
:10642000052C8CBF0021794B754A98BF195DD2F8B5
:10643000003123F003030B43C2F800318DE7002540
:1064400002260121022000F0ABF91EF0A6FB1EF08F
:106450006FFC4FF480316E4B694A1967136F23F05C
:10646000070333431367FEF7CBFD0646FFF790FAA9
:10647000C0F1020130461EF055FC0121002000F061
:10648000CFF9FFF733FFFFF745FC002D7FF465AF31
:10649000032C7FF462AF01225E4B9A625DE74FF4FA
:1064A00000225B4B0E465A66012203F540539D6A5B
:1064B00003F58053C5F340059A62C2E70025042620
:1064C000BFE700250126BCE700252E46B9E7022CD0
:1064D00003D0A4F10F0044424441494BD3F880114A
:1064E00021F003010C43C3F8804136E7023C032C42
:1064F0008CBF0021484B424A98BF195DD2F8203129
:1065000023F003030B43C2F8203126E7A1F108046E
:10651000082C3FF622AF01A353F824F04165010097
:10652000416501005B630100416501006F65010089
:106530005B6301005B6301005B6301004165010077
:106540004FF480322E4B3549586E03F580535A660E
:106550000B6A43F001030B62C1035CBF304B5A6608
:106560004FF0E022136923F004031361F5E64FF4C2
:106570008032234B2949586E03F580535A660B6AC3
:1065800023F001030B62C3035CBF254B5A664FF037
:10659000E022136943F00403E7E7083C062C8CBFB4
:1065A0000021204B164A98BF195DD2F8003223F023
:1065B00007030B43C2F80032CFE60F2C0CD0102C8F
:1065C00014BF002102210E4AD2F8203223F0030327
:1065D0000B43C2F82032C0E60121F4E7083C032C4B
:1065E0008CBF0021104B064A98BF195DD2F840328B
:1065F00023F003030B43C2F84032AEE6AC0E0400B6
:1066000000800050A80E0400A80E0400B90E04007B
:106610000090005000E00050A40E040000C007509D
:1066200000A00050B20E0400A80E0400034B5868EE
:10663000C0F30800003818BF0120704700ED00E0EB
:10664000194B10B51B6873B3184A5268012A2AD037
:10665000174A8020C2F80031FFF76CFB05281FD1D4
:106660004FF4C070FFF7E4FA0128044604D1022178
:106670004FF4C070FFF7D4FD07220E4B1A610122C0
:10668000A3F580535A60094A1369DB07FCD5012C36
:1066900009D12146BDE810404FF4C070FFF7C0BDDE
:1066A0000122054B5A6010BD701C002000C0015033
:1066B0000080005000E0015000D0015000224FF453
:1066C0000031074B1A60074A516602F5983252684A
:1066D000012A02BF044AD2F800211A60704700BFA5
:1066E000701C00200090005000800050044A417847
:1066F000536F23F4407343EA01235367704700BF8D
:106700000040005010B5044608B1FFF7D7FF0E4A0D
:10671000136943F00403136103F0F4FA1EF032FB33
:106720001EF020FB29F014FF1EF020FB1EF02BFBB7
:1067300003F0FCFA1CB1BDE81040FFF781BFBDE8D3
:106740001040FEF75DBC00BF00ED00E010B5044650
:1067500008B1FFF7B3FF0C4A136943F00403136158
:1067600003F0D0FA1EF0FEFA29F0F2FE1EF0FEFA57
:1067700003F0DCFA1CB1BDE81040FFF761BFBDE8D3
:106780001040FEF73DBC00BF00ED00E0034A017978
:10679000D36E23F030030B43D366704700400050A4
:1067A000F8B504461C4BD3F88420D106FBD4D3F8AB
:1067B0008430C3F381139C422CD0FEF707FC012CDC
:1067C000064602D121461EF0ADFA1EF0CBFA4FF07C
:1067D0000072124B07465A6620461EF0D9FA4FF453
:1067E00080630D4D621E93402B676B6E9A0103D43C
:1067F000D5F884309B060AD538461EF0B7FA022C2D
:1068000008D13046BDE8F84000211EF08BBAD5F81B
:106810008430EAE7F8BD00BF00400050006000503F
:1068200007B518B90191FEF7D1FB0199064B1B780A
:1068300043B1064B984205D8012003B05DF804EB44
:10684000FFF7AEBF0220F8E7E3290020005A6202FA
:106850000278034B012100201A70FFF7E1BF00BF4F
:10686000E32900204FF00042012138B5274B5A663A
:1068700003F50C2359604AF6CD33254A556C136451
:106880000D4048BB94680C4009D0224B224C9960C3
:10689000D36ADB0710D4A0420CD14FF0FF340122A1
:1068A0001C4B5A6015B11A4B1C4A1A6429F058F84F
:1068B000204638BD0130EBE7A0424FF0FF3418BF4F
:1068C0000024ECE70131D36A13F0080307D08142BA
:1068D000F8D16FF00104E5E700210F48F3E78142AA
:1068E000F7D020210B4A51620121A2F5805291601C
:1068F0000749094A486A800603D49342E9D0013324
:10690000F8E79342E5D00024CCE700BF00900050A8
:10691000004009500060095040420F003254FFFF10
:106920004FF0004238B5194B194C5A66012203F555
:106930000C235A604AF6CD33656C236443781540C6
:1069400093401343134AD363A368827823F07403FC
:1069500043EA0213C278002A14BF04220022134320
:10696000A3600279837943EA022323614279C379E0
:1069700043EA022363610078FFF774FF0DB1064B11
:10698000236428F0EDFF012038BD00BF00900050C7
:1069900000400950004000503254FFFFF8B5044653
:1069A0000D461F4616464AB101238B403021194A35
:1069B00001FB0022FFB141F21001535004EB4403EC
:1069C000072D4FF00F014FEA031317D8A80006FA5E
:1069D00000F28140104818441EF0DBF956B901213D
:1069E00030230C4801FA05F503FB040077B141F2AE
:1069F0001003C550F8BD42F21001DEE7A5F1080012
:106A0000800006FA00F281400448E4E742F21003F5
:106A1000EFE700BF00C0035004C003500CC0035098
:106A200001210246F8B500F580535960274B2849EB
:106A3000C36053690B40FCD19361C2F8983053692D
:106A400013F4401FFBD15369D9052DD4936F5BBB61
:106A500053699B052AD4D2F8881039BB1046D36FEE
:106A6000D2F88C301EF0A7F930231A489160824288
:106A70000CBF02200020116142F26005D1620F4676
:106A800011621367C2F880300B46134E834210D157
:106A90000020104B9A4201D1102911D10F4B02F561
:106AA000005253629362F8BD536FCCE7D2F8843042
:106AB000CEE702EB0314A564013326656765E5E7BD
:106AC00001F1280442F824000131E3E7120002003A
:106AD000520001000040005A00C002808F330F8036
:106AE000084608B569B92A201EF05FF8B0B10C4B12
:106AF000984206D90B4B9B68C3F302730133B0FB7A
:106B0000F3F0094900F5742000F23F20B0FBF1F0EA
:106B100001387F2828BF7F20C0B208BD0120F0E7E0
:106B2000005A62020040005A40420F0010B50B4C60
:106B30008C4228BF0C461AB92A201EF036F80246AD
:106B4000601E0244B2FBF4F0A24228BF00F1FF3005
:106B5000032828BF0320C0B210BD00BF005A620244
:106B600010B51048104C002B18BF2046884228BF93
:106B7000084604461AB92A201EF017F802469DF866
:106B800008000130B2FBF0F2601E0244B2FBF4F3E5
:106B900040F2FF30A24228BF03F1FF33984228BFE2
:106BA000184610BD80969800404B4C002DE9F04FE0
:106BB0002DED048BB44E0C4687B0154631460022AD
:106BC0000746FFF7B3FF6379984238BF18465FFA6C
:106BD00080F838461EF0EFF8207950B92A201DF0D1
:106BE000E4FFB042014628BFB0FBF8F13846FFF79A
:106BF00077FFE3784FEA08721B0102F0E04203F0EE
:106C0000300313430004227800F4FE0003430AB16A
:106C100043F0020362780AB143F00403A2780AB198
:106C200043F008034FF00009BB60E38822893B6111
:106C30006389DFF860A243EA02433B62574502D111
:106C4000B9F1020F08D1012307F580577B6007B027
:106C5000BDEC048BBDE8F08F00222C788B488C496A
:106C6000AE68944218BF014623468A48CDF800809A
:106C7000FFF776FFB6B28642334638BF034607EBCE
:106C8000091103938B6C04F0030623F0435323F4A0
:106C90001D1323F4405323F01F0333436E78EA7827
:106CA000B60006F01C061E43AB784FEA09101B0322
:106CB00003F4E0433343160406F4E02633432E7C0A
:106CC000760506F4600633432E79360706F0405603
:106CD00033438B648B6C7049C3F30233013B042B49
:106CE00000F28580DFE803F0838383030300D1F89B
:106CF000843109F1050B002C6FD10AEB00039C6C69
:106D0000C4F30234631E012B634B73D8DFED637A47
:106D1000D3F88041A4B223044FF001035044806CA7
:106D200024F4C046C0F3820000F1010E03FA0EFE07
:106D300007EE10EA4FEA8646B8EEC79AF6EE008AEA
:106D4000554B48BF46F00046002871D1D3F88C312E
:106D50001BB208EE103AB8EEC88A37EE888A002ACD
:106D60007BD105A800F008FADFED4D7ADFED4D6A22
:106D700086EE897ADFED4C6A67EE887A27EE267A0E
:106D8000F1EE006AB6F1004F07EEA67A0BD0DFED08
:106D9000476A07EE904A37EE266AFAEEE87AB0EED6
:106DA000667A17EE867AB5EEC07AF1EE10FACABFAF
:106DB000B1EE477A38EEC77A37EE687AFDEEC77AD9
:106DC00017EE903AB3F5003F54DB6FEA56466FEA90
:106DD00046464FEA0B134AF80360039B0AEB0B117C
:106DE000C3F309024A6009F10109143526E7D1F815
:106DF00080317EE7032C0AD1D3F88041D3F88C315F
:106E0000240C1B1407EE903AF8EEE77A83E7042C83
:106E1000D3F884410BBFD3F88C31D3F88C311B14D9
:106E20001B1407BFA4B25B00240C03EB4303E9E788
:106E3000D3F89001D3F8883100B207EE100AB8EE0B
:106E4000C77A77EE677A29EE287A1BB287EE878AAF
:106E500007EE903AF8EEE77A7FE7D5ED037ADFEDBB
:106E6000146AF8EE677A87EEA67AF7EE046AC6EE41
:106E7000877A7BE713F5003FAABFC3F3110346F4FB
:106E800000361E43A5E700BF005A6202404B4C008B
:106E9000809698000040005A0080E00F000000003B
:106EA0003D3B843F00008043000020440000004937
:106EB00000007A444FF400120B4B10B5C3F8802049
:106EC000BFF34F8FBFF36F8F0024FF22074B214684
:106ED0005C6520209A625C60FEF7FAFE2146BDE800
:106EE00010402120FEF7F4BE00E100E00000045055
:106EF000044A054B002918BF1346012202FA00F08C
:106F000018607047402004504010045010B5012113
:106F100004462020FEF7DCFE01212120FEF7D8FEEA
:106F20000122114B5A60227812069A606178A27889
:106F300042EA01429A61FF229A6200229A631A642D
:106F40004FF000425A654FF0FF324FF4001103F545
:106F500000531A65054AC2F88011E3781B01DBB2C1
:106F600082F81533116010BD0000045000E100E00C
:106F70002DE9F04101250C46C3B2DFF888E0D1F8D5
:106F800000809D408F7ACB7A94F80DC0097BCEF8B3
:106F900050500EF5005E4EF820804FF0300E184E27
:106FA0001B050EFB006043EA074343EA415322F00E
:106FB0000302C0F860C0C36502671DF0DAFE736D9E
:106FC0002B437365237A13B1336C2B433364637A99
:106FD00013B1B36B2B43B3632279A37943EA024322
:106FE000084A93616179E37943EA014306498B6179
:106FF000034B55639D64BDE8F0411DF0C0BE00BF6A
:1070000000000450002004500010045010B501246A
:10701000C0B284401DF0ADFE044B5A6D22EA04025A
:107020005A659C62BDE810401DF0A9BE00000450E6
:1070300010B50124C0B284401DF09BFE074BDA6AF4
:10704000224209D15B6B34EA03030CBF0124002404
:107050001DF095FE204610BD0024F9E70000045005
:107060004FF40032054B9A6641F6713203F51C333A
:10707000DA63012203F50053DA6070470090005094
:1070800041F671320121064BDA6303F50052D160FB
:107090000022DA634FF40032A3F518339A66704782
:1070A00000000350CB784A7810B55B010C7843EAB6
:1070B00082030A79234343EA02130C22424302F17A
:1070C000B0421363012C02BF8A78024B43F82020A0
:1070D00010BD00BFE880035008B54FF0B0435A68B8
:1070E00002B960B15B680BB11DF0EBFE4FF0B0412F
:1070F00030B10120074B58601DF0E3FEC86008BDA9
:107100001DF0DFFE0223CB601DF0DBFE0122024BEF
:107110005A60F4E700100058002000584FF0B043C8
:107120005B6870B50BB11DF0CCFE0121104B4578AA
:10713000596083780679002BC37814BF0224002499
:10714000002B14BF042200224379DB0043EA06131C
:107150002B43234313434FF0B0429360054B5960D8
:107160000378002B14BF0B460223D36070BD00BF11
:1071700000200058001000584FF48032064B5A6629
:1071800003F5E6235B69C3F38512827003F03F02C7
:107190001B0B42700370704700900050014B986CBD
:1071A000D96C70470080E00F024B1868C0F30740AD
:1071B000704700BF0080E00F0120034B9B680A333B
:1071C00003F01F03984070470080E00F30B5174C64
:1071D000A0421BD004F58044A04219D004F580449D
:1071E000A04217D004F58044A04215D004F5804495
:1071F000A0420CBF04204FF0FF3006250C4C6BB1B1
:1072000005FB001004EB8000C26030BD0020F4E7F5
:107210000120F2E70220F0E70320EEE705FB001073
:10722000120204EB8004E260EFE700BF008004502C
:107230000081035070B5054616461C4621B94FF42F
:1072400020701DF0B2FC0146402C1BD003D8DCB1ED
:10725000202C1BD070BD602CFCD1042303FB06F254
:10726000560806EB4113B3FBF2F3094A203B02EA4E
:10727000C303AA6822F06002AA60AA681443AC6043
:10728000EB61E7E70623E9E71023E7E70823E5E7F3
:10729000F8FF7F00012200F5805310B55A6040F6D8
:1072A000AA6341F20502436100230E498360C3656E
:1072B000C26000F500520361C361C36491640A496E
:1072C0008365884202D0094CA04207D188420365F9
:1072D00002D0064B984201D100234365012353603D
:1072E00010BD00BFFFFF010000C0055000000650A8
:1072F00070B50D46FFF7CEFF012300F58056736091
:10730000AB7C04461BB1836843F080438360EB7C15
:107310005BB1354A2B7D944245D1A2F51032C2F8BB
:107320008C31E36D43F08003E3652A8A6B7B204652
:107330001343EA891343E3602B7BD5E90112FFF77E
:1073400079FF6B7D1BB1A36843F48033A360AB7DF1
:107350001BB1A36843F40043A360EB7D2A7E1B07A7
:10736000120502F4E00203F0E0431343A365697ED3
:107370001D4A8B1E012B1D4B1FD894421BD002F5BA
:10738000804294420CBF01224FF0FF3203EB4213C4
:10739000022041F21C620329985020D10423F36596
:1073A0002B78636170BD124A944204BFA2F520326B
:1073B000C2F89C31B5E70022E8E794420DD00C4AB0
:1073C00094420CBF01224FF0FF3203EB4213022024
:1073D00042F21C6201299850DFE70022F5E70422FF
:1073E00004F50053DA65DBE700C0055000C0035028
:1073F0000000065038B50446054D28F0D8FA0FCCE9
:107400000FC594E8030085E80300002038BD00BFE5
:10741000741C002047F6FF739A42F0B566D001292C
:1074200066D8344DCF0015F8313005EBC100012B83
:10743000847813D10025C3781B1B9D4202D3E0182A
:10744000C0B2F0BD591B4668A3EB510136F911607B
:107450009642D4BF0D4601F1FF33EEE740680028A5
:10746000EFD0B0F90030934204DBB0F90230934220
:10747000B8BF134682883D44FF2A19BFC8214FF088
:10748000280CB0F90610B0F908C0A1EB03020CBF3C
:107490000126002692FBFCF26D78324412B295422E
:1074A00001DD002A01DA6A1E12B24FF47A7700EB8E
:1074B000C206F188B668013213FB016112B221EAFB
:1074C000E1715C319542B1FBF7F104DD00EBC206DE
:1074D000B6888E42EBD200EBC20232F8040C88422E
:1074E00028BF0846A04238BF2046A9E7FF20A8E7EA
:1074F0000020A6E7741C00200129F0B553D82B48C2
:1075000000EBC10410F83110636801290FD1E07855
:10751000A478904294BFC4EB0001C4EB0201001BAD
:10752000CAB28242C8BF002233F91200F0BD002B5C
:1075300039D0A178914202D3B3F90200F6E7E1789D
:10754000B3F900009142F1D999886478A1F1FF065E
:10755000013C714203F10405E4B2714103F10C07EF
:107560001FFA82FCCEB2B44216D805EBC1014FF42B
:107570007A756A43B1F902404968521A04EBD47132
:1075800002EB610292FBF4F29042CFDBB3F902000E
:107590009042CBDC10B2C9E737F831E04E1CE6452B
:1075A000E3D33146DEE70248C0E700BF741C002089
:1075B0000080FFFF08B50448FFF71CFFBDE8084046
:1075C000012028F0F8B900BF841704000048704774
:1075D000140D00207FB50222084B0949CDE9012393
:1075E0004FF00073CDE90313052301A94FF0FF30DD
:1075F000059328F016FA07B05DF804FB006A18003E
:10760000000204001B0603F0706300F00F00090283
:10761000034301F47061120402F470220B4313431C
:10762000014A1360704700BF0020025C60B5054648
:1076300019B10139B1F5806F10D2094EF06810F41C
:107640008030FBD143EA0121120741EA050302F031
:107650008052134343F00043736060BD0120FCE798
:107660000020025C0122054B9A60DA68D203FCD448
:10767000D86820F00F000004000C70470020025C66
:10768000014B1868704700BF0040025C014B58680E
:10769000704700BF0010025C014B186B704700BFC1
:1076A0000010025C014B1868704700BF0010025CBC
:1076B000014B9860704700BF0010025C014B1864DA
:1076C000704700BF0010025C014B5864704700BF58
:1076D0000010025C014B5863704700BF0010025C51
:1076E0000022014B1A6070470010025C024A1368C6
:1076F00043F00103136070470010025C43F2040280
:10770000014B1A60704700BF0010025C024A136808
:1077100043F03003136070470010025C044B1A689A
:1077200042F480721A601A6822F480721A607047FC
:107730000010025C024A136843F4806313607047D0
:107740000010025C034A136823F4702343EA0040EC
:10775000106070470010025C044B1A6902605A699D
:1077600042609A698260DB69C36070470010025C06
:107770000268044B1A6142685A6182689A61C26861
:10778000DA6170470010025C024B1A6BD207FCD41E
:10779000186270470010025C024B186B00F00E007C
:1077A000704700BF0010025C82B01FB507930A9BB0
:1077B00004AC8B4228BF0B4604E907001048D100F7
:1077C000079948BF03330160099948BF23F00303B9
:1077D00023F0704301F0E041194341F00051816012
:1077E000002102F0E042019C134343F00053C160CA
:1077F00004618361416304B0BDE8104002B070478A
:107800000000025C3F22034B1A631022DA6103225C
:107810009A6370470000025C024AD36B9B07FCD45A
:10782000704700BF0000025C034B986A10F0240010
:1078300018BF0420704700BF0000025C08B5FFF7C6
:10784000F3FF064BDB6B23F47F4323F0EF0303438B
:107850001EBF0122024BC3F8FC2F08BD0000025CD2
:1078600000F0FF3F032208B5054B186019615A6309
:10787000FFF7C8FFFFF7D0FFBDE80840FFF7DEBF06
:107880000000025C42680346182A10B50AD0202A7C
:107890001DD0102A2BD1174AD2F80424D4010AD4BF
:1078A000012013E0134AD2F804249001F8D50A68A5
:1078B00042F008020A6010481A6882424FF0000045
:1078C0000ED10A6842F040020A60586010BD094AB1
:1078D000D2F804245201E3D50A6842F00402E9E731
:1078E000064CA242F2D10A6842F08002ECE707207F
:1078F000ECE700BF0000025CE4290020E52900203D
:107900000B4607B50749D1F80414C90708D500216B
:1079100000920246084600F05BF803B05DF804FBF5
:107920000120FAE70000025C1346064AD2F804245C
:10793000D20504D50A46014600201DF081BD012074
:10794000704700BF0000025C13B5084CD4F8044433
:10795000E40508D5009313460A460146002000F0CE
:1079600061F802B010BD0120FBE700BF0000025C1F
:1079700013B5084CD4F80444E40508D50093134625
:107980000A460146002000F071F802B010BD012047
:10799000FBE700BF0000025C70B504460D461646CA
:1079A0008CB00A4A09AB07CA83E807001A46214689
:1079B000CDE90563CDE90333CDE9013300954FF4FB
:1079C00080301DF061FC0CB070BD00BFC00E040023
:1079D000F0B51C465B6815468DB01A07129E1AD189
:1079E000CBB17268934216D10C4B0D4A53F82170FB
:1079F00009AB07CA83E807001A462946CDE90533D3
:107A0000CDE90333CDE90163009447F480701DF0A4
:107A10003BFC0DB0F0BD0720FBE700BFCC0E04001F
:107A2000C00E0400F0B516465A688DB0102A0D46F7
:107A3000129F15D17A68102A12D10A4A09AC07CAD6
:107A400084E8070022462946CDE90547CDE90344ED
:107A5000CDE90144044800961DF016FC0DB0F0BDC0
:107A60000720FBE7C00E040030000100F0B5164609
:107A70005A688DB0102A0D46129F15D17A68102AC7
:107A800012D10A4A09AC07CA84E8070022462946EF
:107A9000CDE90574CDE90344CDE9014404480096DD
:107AA0001DF0F2FB0DB0F0BD0720FBE7C00E040097
:107AB0001000010082B070B586B0149D03AE202D79
:107AC00086E807000B9359D805EB85038B4203D05A
:107AD00006236B438B4253D10C9BAB4250D10F9B7F
